{
  "contracts/BuyThoseTickets.sol": {
    "BuyThoseTickets": {
      "abi": [
        {
          "inputs": [],
          "stateMutability": "nonpayable",
          "type": "constructor"
        },
        {
          "inputs": [
            {
              "internalType": "uint256",
              "name": "maxTickets",
              "type": "uint256"
            }
          ],
          "name": "AllTicketsSold",
          "type": "error"
        },
        {
          "inputs": [
            {
              "internalType": "address",
              "name": "owner",
              "type": "address"
            }
          ],
          "name": "AlreadyOwner",
          "type": "error"
        },
        {
          "inputs": [
            {
              "internalType": "string",
              "name": "name",
              "type": "string"
            }
          ],
          "name": "EventNotFound",
          "type": "error"
        },
        {
          "inputs": [
            {
              "internalType": "string",
              "name": "name",
              "type": "string"
            }
          ],
          "name": "ExistingEvent",
          "type": "error"
        },
        {
          "inputs": [
            {
              "internalType": "address",
              "name": "sender",
              "type": "address"
            }
          ],
          "name": "NotOwner",
          "type": "error"
        },
        {
          "inputs": [
            {
              "internalType": "address",
              "name": "owner",
              "type": "address"
            }
          ],
          "name": "OwnableInvalidOwner",
          "type": "error"
        },
        {
          "inputs": [
            {
              "internalType": "address",
              "name": "account",
              "type": "address"
            }
          ],
          "name": "OwnableUnauthorizedAccount",
          "type": "error"
        },
        {
          "inputs": [
            {
              "internalType": "uint256",
              "name": "ticketPrice",
              "type": "uint256"
            }
          ],
          "name": "TicketPriceNotCovered",
          "type": "error"
        },
        {
          "anonymous": false,
          "inputs": [
            {
              "indexed": true,
              "internalType": "address",
              "name": "previousOwner",
              "type": "address"
            },
            {
              "indexed": true,
              "internalType": "address",
              "name": "newOwner",
              "type": "address"
            }
          ],
          "name": "OwnershipTransferred",
          "type": "event"
        },
        {
          "inputs": [
            {
              "internalType": "string",
              "name": "_name",
              "type": "string"
            },
            {
              "internalType": "uint256",
              "name": "_date",
              "type": "uint256"
            },
            {
              "internalType": "uint256",
              "name": "_ticketPrice",
              "type": "uint256"
            },
            {
              "internalType": "uint256",
              "name": "_maxTickets",
              "type": "uint256"
            }
          ],
          "name": "addEvent",
          "outputs": [
            {
              "internalType": "uint256",
              "name": "",
              "type": "uint256"
            }
          ],
          "stateMutability": "nonpayable",
          "type": "function"
        },
        {
          "inputs": [
            {
              "internalType": "string",
              "name": "_eventName",
              "type": "string"
            }
          ],
          "name": "buyTicket",
          "outputs": [
            {
              "internalType": "uint256",
              "name": "",
              "type": "uint256"
            }
          ],
          "stateMutability": "payable",
          "type": "function"
        },
        {
          "inputs": [],
          "name": "getAllEvents",
          "outputs": [
            {
              "internalType": "string[]",
              "name": "",
              "type": "string[]"
            }
          ],
          "stateMutability": "view",
          "type": "function"
        },
        {
          "inputs": [
            {
              "internalType": "string",
              "name": "_name",
              "type": "string"
            }
          ],
          "name": "getEventInformation",
          "outputs": [
            {
              "components": [
                {
                  "internalType": "string",
                  "name": "name",
                  "type": "string"
                },
                {
                  "internalType": "uint256",
                  "name": "date",
                  "type": "uint256"
                },
                {
                  "internalType": "uint256",
                  "name": "ticketPrice",
                  "type": "uint256"
                },
                {
                  "internalType": "uint256",
                  "name": "maxTickets",
                  "type": "uint256"
                },
                {
                  "internalType": "uint256",
                  "name": "ticketsLeft",
                  "type": "uint256"
                }
              ],
              "internalType": "struct BuyThoseTickets.EventInfo",
              "name": "",
              "type": "tuple"
            }
          ],
          "stateMutability": "view",
          "type": "function"
        },
        {
          "inputs": [],
          "name": "owner",
          "outputs": [
            {
              "internalType": "address",
              "name": "",
              "type": "address"
            }
          ],
          "stateMutability": "view",
          "type": "function"
        },
        {
          "inputs": [],
          "name": "renounceOwnership",
          "outputs": [],
          "stateMutability": "nonpayable",
          "type": "function"
        },
        {
          "inputs": [
            {
              "internalType": "string",
              "name": "_eventName",
              "type": "string"
            },
            {
              "internalType": "address",
              "name": "receiver",
              "type": "address"
            }
          ],
          "name": "resellTicket",
          "outputs": [
            {
              "internalType": "uint256",
              "name": "",
              "type": "uint256"
            }
          ],
          "stateMutability": "nonpayable",
          "type": "function"
        },
        {
          "inputs": [
            {
              "internalType": "string",
              "name": "_eventName",
              "type": "string"
            }
          ],
          "name": "ticketOwned",
          "outputs": [
            {
              "internalType": "bool",
              "name": "",
              "type": "bool"
            }
          ],
          "stateMutability": "view",
          "type": "function"
        },
        {
          "inputs": [],
          "name": "ticketsOwned",
          "outputs": [
            {
              "internalType": "string[]",
              "name": "",
              "type": "string[]"
            }
          ],
          "stateMutability": "view",
          "type": "function"
        },
        {
          "inputs": [
            {
              "internalType": "address",
              "name": "newOwner",
              "type": "address"
            }
          ],
          "name": "transferOwnership",
          "outputs": [],
          "stateMutability": "nonpayable",
          "type": "function"
        }
      ],
      "evm": {
        "bytecode": {
          "linkReferences": {},
          "object": "60806040523480156200001157600080fd5b5033600073ffffffffffffffffffffffffffffffffffffffff168173ffffffffffffffffffffffffffffffffffffffff1603620000885760006040517f1e4fbdf70000000000000000000000000000000000000000000000000000000081526004016200007f9190620001a9565b60405180910390fd5b6200009981620000a060201b60201c565b50620001c6565b60008060009054906101000a900473ffffffffffffffffffffffffffffffffffffffff169050816000806101000a81548173ffffffffffffffffffffffffffffffffffffffff021916908373ffffffffffffffffffffffffffffffffffffffff1602179055508173ffffffffffffffffffffffffffffffffffffffff168173ffffffffffffffffffffffffffffffffffffffff167f8be0079c531659141344cd1fd0a4f28419497f9722a3daafe3b4186f6b6457e060405160405180910390a35050565b600073ffffffffffffffffffffffffffffffffffffffff82169050919050565b6000620001918262000164565b9050919050565b620001a38162000184565b82525050565b6000602082019050620001c0600083018462000198565b92915050565b611c0580620001d66000396000f3fe6080604052600436106100915760003560e01c806394f3af431161005957806394f3af431461018f578063c27a500d146101cc578063d4fd27be146101f7578063f2fde38b14610222578063fa30b2511461024b57610091565b80630d9cba5c1461009657806328c08ed0146100d357806368a2364814610110578063715018a61461014d5780638da5cb5b14610164575b600080fd5b3480156100a257600080fd5b506100bd60048036038101906100b891906112ac565b61027b565b6040516100ca9190611310565b60405180910390f35b3480156100df57600080fd5b506100fa60048036038101906100f59190611361565b61031f565b60405161010791906113f3565b60405180910390f35b34801561011c57600080fd5b506101376004803603810190610132919061146c565b610423565b60405161014491906113f3565b60405180910390f35b34801561015957600080fd5b50610162610591565b005b34801561017057600080fd5b506101796105a5565b60405161018691906114d7565b60405180910390f35b34801561019b57600080fd5b506101b660048036038101906101b191906112ac565b6105ce565b6040516101c391906115f6565b60405180910390f35b3480156101d857600080fd5b506101e161073b565b6040516101ee91906116da565b60405180910390f35b34801561020357600080fd5b5061020c610891565b60405161021991906116da565b60405180910390f35b34801561022e57600080fd5b50610249600480360381019061024491906116fc565b610a95565b005b610265600480360381019061026091906112ac565b610b1b565b60405161027291906113f3565b60405180910390f35b600081600061028982610cbe565b905061029f816002610cee90919063ffffffff16565b6102e057816040517f772c68890000000000000000000000000000000000000000000000000000000081526004016102d79190611773565b60405180910390fd5b6000600160006102ef87610cbe565b815260200190815260200160002090506103153382600401610d0590919063ffffffff16565b9350505050919050565b6000610329610d35565b600061033486610cbe565b905061034a816002610cee90919063ffffffff16565b1561038c57856040517f7175ed400000000000000000000000000000000000000000000000000000000081526004016103839190611773565b60405180910390fd5b6103a0816002610dbc90919063ffffffff16565b50856001600083815260200190815260200160002060000190816103c491906119a1565b508460016000838152602001908152602001600020600101819055508360016000838152602001908152602001600020600201819055508260016000838152602001908152602001600020600301819055506001915050949350505050565b600082600061043182610cbe565b9050610447816002610cee90919063ffffffff16565b61048857816040517f772c688900000000000000000000000000000000000000000000000000000000815260040161047f9190611773565b60405180910390fd5b60006001600061049788610cbe565b815260200190815260200160002090506104bd3382600401610d0590919063ffffffff16565b6104fe57336040517f245aecd30000000000000000000000000000000000000000000000000000000081526004016104f591906114d7565b60405180910390fd5b6105148582600401610d0590919063ffffffff16565b1561055657846040517f8beb928c00000000000000000000000000000000000000000000000000000000815260040161054d91906114d7565b60405180910390fd5b61056c3382600401610dd390919063ffffffff16565b506105838582600401610e0390919063ffffffff16565b506001935050505092915050565b610599610d35565b6105a36000610e33565b565b60008060009054906101000a900473ffffffffffffffffffffffffffffffffffffffff16905090565b6105d6611123565b8160006105e282610cbe565b90506105f8816002610cee90919063ffffffff16565b61063957816040517f772c68890000000000000000000000000000000000000000000000000000000081526004016106309190611773565b60405180910390fd5b60006001600061064887610cbe565b815260200190815260200160002090506040518060a00160405280826000018054610672906117c4565b80601f016020809104026020016040519081016040528092919081815260200182805461069e906117c4565b80156106eb5780601f106106c0576101008083540402835291602001916106eb565b820191906000526020600020905b8154815290600101906020018083116106ce57829003601f168201915b5050505050815260200182600101548152602001826002015481526020018260030154815260200161071f83600401610ef7565b836003015461072e9190611aa2565b8152509350505050919050565b606060006107496002610f0c565b67ffffffffffffffff81111561076257610761611181565b5b60405190808252806020026020018201604052801561079557816020015b60608152602001906001900390816107805790505b50905060005b6107a56002610f0c565b81101561088957600160006107c4836002610f2190919063ffffffff16565b815260200190815260200160002060000180546107e0906117c4565b80601f016020809104026020016040519081016040528092919081815260200182805461080c906117c4565b80156108595780601f1061082e57610100808354040283529160200191610859565b820191906000526020600020905b81548152906001019060200180831161083c57829003601f168201915b505050505082828151811061087157610870611ad6565b5b6020026020010181905250808060010191505061079b565b508091505090565b60606000805b6108a16002610f0c565b8110156109105760006108be826002610f2190919063ffffffff16565b905060006001600083815260200190815260200160002090506108ed3382600401610d0590919063ffffffff16565b156109015783806108fd90611b05565b9450505b50508080600101915050610897565b5060008167ffffffffffffffff81111561092d5761092c611181565b5b60405190808252806020026020018201604052801561096057816020015b606081526020019060019003908161094b5790505b5090506000805b6109716002610f0c565b811015610a8b57600061098e826002610f2190919063ffffffff16565b905060006001600083815260200190815260200160002090506109bd3382600401610d0590919063ffffffff16565b15610a7c578060000180546109d1906117c4565b80601f01602080910402602001604051908101604052809291908181526020018280546109fd906117c4565b8015610a4a5780601f10610a1f57610100808354040283529160200191610a4a565b820191906000526020600020905b815481529060010190602001808311610a2d57829003601f168201915b5050505050858581518110610a6257610a61611ad6565b5b60200260200101819052508380610a7890611b05565b9450505b50508080600101915050610967565b5081935050505090565b610a9d610d35565b600073ffffffffffffffffffffffffffffffffffffffff168173ffffffffffffffffffffffffffffffffffffffff1603610b0f5760006040517f1e4fbdf7000000000000000000000000000000000000000000000000000000008152600401610b0691906114d7565b60405180910390fd5b610b1881610e33565b50565b6000816000610b2982610cbe565b9050610b3f816002610cee90919063ffffffff16565b610b8057816040517f772c6889000000000000000000000000000000000000000000000000000000008152600401610b779190611773565b60405180910390fd5b600060016000610b8f87610cbe565b81526020019081526020016000209050610bb53382600401610d0590919063ffffffff16565b15610bf757336040517f8beb928c000000000000000000000000000000000000000000000000000000008152600401610bee91906114d7565b60405180910390fd5b8060030154610c0882600401610ef7565b03610c4e5780600301546040517fe6850dfe000000000000000000000000000000000000000000000000000000008152600401610c4591906113f3565b60405180910390fd5b8060020154341015610c9b5780600201546040517f4c7ae571000000000000000000000000000000000000000000000000000000008152600401610c9291906113f3565b60405180910390fd5b610cb13382600401610e0390919063ffffffff16565b5060019350505050919050565b600081604051602001610cd19190611b89565b604051602081830303815290604052805190602001209050919050565b6000610cfd8360000183610f38565b905092915050565b6000610d2d836000018373ffffffffffffffffffffffffffffffffffffffff1660001b610f38565b905092915050565b610d3d610f5b565b73ffffffffffffffffffffffffffffffffffffffff16610d5b6105a5565b73ffffffffffffffffffffffffffffffffffffffff1614610dba57610d7e610f5b565b6040517f118cdaa7000000000000000000000000000000000000000000000000000000008152600401610db191906114d7565b60405180910390fd5b565b6000610dcb8360000183610f63565b905092915050565b6000610dfb836000018373ffffffffffffffffffffffffffffffffffffffff1660001b610fd3565b905092915050565b6000610e2b836000018373ffffffffffffffffffffffffffffffffffffffff1660001b610f63565b905092915050565b60008060009054906101000a900473ffffffffffffffffffffffffffffffffffffffff169050816000806101000a81548173ffffffffffffffffffffffffffffffffffffffff021916908373ffffffffffffffffffffffffffffffffffffffff1602179055508173ffffffffffffffffffffffffffffffffffffffff168173ffffffffffffffffffffffffffffffffffffffff167f8be0079c531659141344cd1fd0a4f28419497f9722a3daafe3b4186f6b6457e060405160405180910390a35050565b6000610f05826000016110e7565b9050919050565b6000610f1a826000016110e7565b9050919050565b6000610f3083600001836110f8565b905092915050565b600080836001016000848152602001908152602001600020541415905092915050565b600033905090565b6000610f6f8383610f38565b610fc8578260000182908060018154018082558091505060019003906000526020600020016000909190919091505582600001805490508360010160008481526020019081526020016000208190555060019050610fcd565b600090505b92915050565b600080836001016000848152602001908152602001600020549050600081146110db5760006001826110059190611aa2565b905060006001866000018054905061101d9190611aa2565b905080821461108c57600086600001828154811061103e5761103d611ad6565b5b906000526020600020015490508087600001848154811061106257611061611ad6565b5b90600052602060002001819055508387600101600083815260200190815260200160002081905550505b856000018054806110a05761109f611ba0565b5b6001900381819060005260206000200160009055905585600101600086815260200190815260200160002060009055600193505050506110e1565b60009150505b92915050565b600081600001805490509050919050565b60008260000182815481106111105761110f611ad6565b5b9060005260206000200154905092915050565b6040518060a0016040528060608152602001600081526020016000815260200160008152602001600081525090565b6000604051905090565b600080fd5b600080fd5b600080fd5b600080fd5b6000601f19601f8301169050919050565b7f4e487b7100000000000000000000000000000000000000000000000000000000600052604160045260246000fd5b6111b982611170565b810181811067ffffffffffffffff821117156111d8576111d7611181565b5b80604052505050565b60006111eb611152565b90506111f782826111b0565b919050565b600067ffffffffffffffff82111561121757611216611181565b5b61122082611170565b9050602081019050919050565b82818337600083830152505050565b600061124f61124a846111fc565b6111e1565b90508281526020810184848401111561126b5761126a61116b565b5b61127684828561122d565b509392505050565b600082601f83011261129357611292611166565b5b81356112a384826020860161123c565b91505092915050565b6000602082840312156112c2576112c161115c565b5b600082013567ffffffffffffffff8111156112e0576112df611161565b5b6112ec8482850161127e565b91505092915050565b60008115159050919050565b61130a816112f5565b82525050565b60006020820190506113256000830184611301565b92915050565b6000819050919050565b61133e8161132b565b811461134957600080fd5b50565b60008135905061135b81611335565b92915050565b6000806000806080858703121561137b5761137a61115c565b5b600085013567ffffffffffffffff81111561139957611398611161565b5b6113a58782880161127e565b94505060206113b68782880161134c565b93505060406113c78782880161134c565b92505060606113d88782880161134c565b91505092959194509250565b6113ed8161132b565b82525050565b600060208201905061140860008301846113e4565b92915050565b600073ffffffffffffffffffffffffffffffffffffffff82169050919050565b60006114398261140e565b9050919050565b6114498161142e565b811461145457600080fd5b50565b60008135905061146681611440565b92915050565b600080604083850312156114835761148261115c565b5b600083013567ffffffffffffffff8111156114a1576114a0611161565b5b6114ad8582860161127e565b92505060206114be85828601611457565b9150509250929050565b6114d18161142e565b82525050565b60006020820190506114ec60008301846114c8565b92915050565b600081519050919050565b600082825260208201905092915050565b60005b8381101561152c578082015181840152602081019050611511565b60008484015250505050565b6000611543826114f2565b61154d81856114fd565b935061155d81856020860161150e565b61156681611170565b840191505092915050565b61157a8161132b565b82525050565b600060a083016000830151848203600086015261159d8282611538565b91505060208301516115b26020860182611571565b5060408301516115c56040860182611571565b5060608301516115d86060860182611571565b5060808301516115eb6080860182611571565b508091505092915050565b600060208201905081810360008301526116108184611580565b905092915050565b600081519050919050565b600082825260208201905092915050565b6000819050602082019050919050565b60006116508383611538565b905092915050565b6000602082019050919050565b600061167082611618565b61167a8185611623565b93508360208202850161168c85611634565b8060005b858110156116c857848403895281516116a98582611644565b94506116b483611658565b925060208a01995050600181019050611690565b50829750879550505050505092915050565b600060208201905081810360008301526116f48184611665565b905092915050565b6000602082840312156117125761171161115c565b5b600061172084828501611457565b91505092915050565b600082825260208201905092915050565b6000611745826114f2565b61174f8185611729565b935061175f81856020860161150e565b61176881611170565b840191505092915050565b6000602082019050818103600083015261178d818461173a565b905092915050565b7f4e487b7100000000000000000000000000000000000000000000000000000000600052602260045260246000fd5b600060028204905060018216806117dc57607f821691505b6020821081036117ef576117ee611795565b5b50919050565b60008190508160005260206000209050919050565b60006020601f8301049050919050565b600082821b905092915050565b6000600883026118577fffffffffffffffffffffffffffffffffffffffffffffffffffffffffffffffff8261181a565b611861868361181a565b95508019841693508086168417925050509392505050565b6000819050919050565b600061189e6118996118948461132b565b611879565b61132b565b9050919050565b6000819050919050565b6118b883611883565b6118cc6118c4826118a5565b848454611827565b825550505050565b600090565b6118e16118d4565b6118ec8184846118af565b505050565b5b81811015611910576119056000826118d9565b6001810190506118f2565b5050565b601f82111561195557611926816117f5565b61192f8461180a565b8101602085101561193e578190505b61195261194a8561180a565b8301826118f1565b50505b505050565b600082821c905092915050565b60006119786000198460080261195a565b1980831691505092915050565b60006119918383611967565b9150826002028217905092915050565b6119aa826114f2565b67ffffffffffffffff8111156119c3576119c2611181565b5b6119cd82546117c4565b6119d8828285611914565b600060209050601f831160018114611a0b57600084156119f9578287015190505b611a038582611985565b865550611a6b565b601f198416611a19866117f5565b60005b82811015611a4157848901518255600182019150602085019450602081019050611a1c565b86831015611a5e5784890151611a5a601f891682611967565b8355505b6001600288020188555050505b505050505050565b7f4e487b7100000000000000000000000000000000000000000000000000000000600052601160045260246000fd5b6000611aad8261132b565b9150611ab88361132b565b9250828203905081811115611ad057611acf611a73565b5b92915050565b7f4e487b7100000000000000000000000000000000000000000000000000000000600052603260045260246000fd5b6000611b108261132b565b91507fffffffffffffffffffffffffffffffffffffffffffffffffffffffffffffffff8203611b4257611b41611a73565b5b600182019050919050565b600081905092915050565b6000611b63826114f2565b611b6d8185611b4d565b9350611b7d81856020860161150e565b80840191505092915050565b6000611b958284611b58565b915081905092915050565b7f4e487b7100000000000000000000000000000000000000000000000000000000600052603160045260246000fdfea26469706673582212204c92a8965f161dd2e33aa8ec5f5f894a868ca74c3161b2a5cb4f426611a82a6b64736f6c63430008180033",
          "opcodes": "PUSH1 0x80 PUSH1 0x40 MSTORE CALLVALUE DUP1 ISZERO PUSH3 0x11 JUMPI PUSH1 0x0 DUP1 REVERT JUMPDEST POP CALLER PUSH1 0x0 PUSH20 0xFFFFFFFFFFFFFFFFFFFFFFFFFFFFFFFFFFFFFFFF AND DUP2 PUSH20 0xFFFFFFFFFFFFFFFFFFFFFFFFFFFFFFFFFFFFFFFF AND SUB PUSH3 0x88 JUMPI PUSH1 0x0 PUSH1 0x40 MLOAD PUSH32 0x1E4FBDF700000000000000000000000000000000000000000000000000000000 DUP2 MSTORE PUSH1 0x4 ADD PUSH3 0x7F SWAP2 SWAP1 PUSH3 0x1A9 JUMP JUMPDEST PUSH1 0x40 MLOAD DUP1 SWAP2 SUB SWAP1 REVERT JUMPDEST PUSH3 0x99 DUP2 PUSH3 0xA0 PUSH1 0x20 SHL PUSH1 0x20 SHR JUMP JUMPDEST POP PUSH3 0x1C6 JUMP JUMPDEST PUSH1 0x0 DUP1 PUSH1 0x0 SWAP1 SLOAD SWAP1 PUSH2 0x100 EXP SWAP1 DIV PUSH20 0xFFFFFFFFFFFFFFFFFFFFFFFFFFFFFFFFFFFFFFFF AND SWAP1 POP DUP2 PUSH1 0x0 DUP1 PUSH2 0x100 EXP DUP2 SLOAD DUP2 PUSH20 0xFFFFFFFFFFFFFFFFFFFFFFFFFFFFFFFFFFFFFFFF MUL NOT AND SWAP1 DUP4 PUSH20 0xFFFFFFFFFFFFFFFFFFFFFFFFFFFFFFFFFFFFFFFF AND MUL OR SWAP1 SSTORE POP DUP2 PUSH20 0xFFFFFFFFFFFFFFFFFFFFFFFFFFFFFFFFFFFFFFFF AND DUP2 PUSH20 0xFFFFFFFFFFFFFFFFFFFFFFFFFFFFFFFFFFFFFFFF AND PUSH32 0x8BE0079C531659141344CD1FD0A4F28419497F9722A3DAAFE3B4186F6B6457E0 PUSH1 0x40 MLOAD PUSH1 0x40 MLOAD DUP1 SWAP2 SUB SWAP1 LOG3 POP POP JUMP JUMPDEST PUSH1 0x0 PUSH20 0xFFFFFFFFFFFFFFFFFFFFFFFFFFFFFFFFFFFFFFFF DUP3 AND SWAP1 POP SWAP2 SWAP1 POP JUMP JUMPDEST PUSH1 0x0 PUSH3 0x191 DUP3 PUSH3 0x164 JUMP JUMPDEST SWAP1 POP SWAP2 SWAP1 POP JUMP JUMPDEST PUSH3 0x1A3 DUP2 PUSH3 0x184 JUMP JUMPDEST DUP3 MSTORE POP POP JUMP JUMPDEST PUSH1 0x0 PUSH1 0x20 DUP3 ADD SWAP1 POP PUSH3 0x1C0 PUSH1 0x0 DUP4 ADD DUP5 PUSH3 0x198 JUMP JUMPDEST SWAP3 SWAP2 POP POP JUMP JUMPDEST PUSH2 0x1C05 DUP1 PUSH3 0x1D6 PUSH1 0x0 CODECOPY PUSH1 0x0 RETURN INVALID PUSH1 0x80 PUSH1 0x40 MSTORE PUSH1 0x4 CALLDATASIZE LT PUSH2 0x91 JUMPI PUSH1 0x0 CALLDATALOAD PUSH1 0xE0 SHR DUP1 PUSH4 0x94F3AF43 GT PUSH2 0x59 JUMPI DUP1 PUSH4 0x94F3AF43 EQ PUSH2 0x18F JUMPI DUP1 PUSH4 0xC27A500D EQ PUSH2 0x1CC JUMPI DUP1 PUSH4 0xD4FD27BE EQ PUSH2 0x1F7 JUMPI DUP1 PUSH4 0xF2FDE38B EQ PUSH2 0x222 JUMPI DUP1 PUSH4 0xFA30B251 EQ PUSH2 0x24B JUMPI PUSH2 0x91 JUMP JUMPDEST DUP1 PUSH4 0xD9CBA5C EQ PUSH2 0x96 JUMPI DUP1 PUSH4 0x28C08ED0 EQ PUSH2 0xD3 JUMPI DUP1 PUSH4 0x68A23648 EQ PUSH2 0x110 JUMPI DUP1 PUSH4 0x715018A6 EQ PUSH2 0x14D JUMPI DUP1 PUSH4 0x8DA5CB5B EQ PUSH2 0x164 JUMPI JUMPDEST PUSH1 0x0 DUP1 REVERT JUMPDEST CALLVALUE DUP1 ISZERO PUSH2 0xA2 JUMPI PUSH1 0x0 DUP1 REVERT JUMPDEST POP PUSH2 0xBD PUSH1 0x4 DUP1 CALLDATASIZE SUB DUP2 ADD SWAP1 PUSH2 0xB8 SWAP2 SWAP1 PUSH2 0x12AC JUMP JUMPDEST PUSH2 0x27B JUMP JUMPDEST PUSH1 0x40 MLOAD PUSH2 0xCA SWAP2 SWAP1 PUSH2 0x1310 JUMP JUMPDEST PUSH1 0x40 MLOAD DUP1 SWAP2 SUB SWAP1 RETURN JUMPDEST CALLVALUE DUP1 ISZERO PUSH2 0xDF JUMPI PUSH1 0x0 DUP1 REVERT JUMPDEST POP PUSH2 0xFA PUSH1 0x4 DUP1 CALLDATASIZE SUB DUP2 ADD SWAP1 PUSH2 0xF5 SWAP2 SWAP1 PUSH2 0x1361 JUMP JUMPDEST PUSH2 0x31F JUMP JUMPDEST PUSH1 0x40 MLOAD PUSH2 0x107 SWAP2 SWAP1 PUSH2 0x13F3 JUMP JUMPDEST PUSH1 0x40 MLOAD DUP1 SWAP2 SUB SWAP1 RETURN JUMPDEST CALLVALUE DUP1 ISZERO PUSH2 0x11C JUMPI PUSH1 0x0 DUP1 REVERT JUMPDEST POP PUSH2 0x137 PUSH1 0x4 DUP1 CALLDATASIZE SUB DUP2 ADD SWAP1 PUSH2 0x132 SWAP2 SWAP1 PUSH2 0x146C JUMP JUMPDEST PUSH2 0x423 JUMP JUMPDEST PUSH1 0x40 MLOAD PUSH2 0x144 SWAP2 SWAP1 PUSH2 0x13F3 JUMP JUMPDEST PUSH1 0x40 MLOAD DUP1 SWAP2 SUB SWAP1 RETURN JUMPDEST CALLVALUE DUP1 ISZERO PUSH2 0x159 JUMPI PUSH1 0x0 DUP1 REVERT JUMPDEST POP PUSH2 0x162 PUSH2 0x591 JUMP JUMPDEST STOP JUMPDEST CALLVALUE DUP1 ISZERO PUSH2 0x170 JUMPI PUSH1 0x0 DUP1 REVERT JUMPDEST POP PUSH2 0x179 PUSH2 0x5A5 JUMP JUMPDEST PUSH1 0x40 MLOAD PUSH2 0x186 SWAP2 SWAP1 PUSH2 0x14D7 JUMP JUMPDEST PUSH1 0x40 MLOAD DUP1 SWAP2 SUB SWAP1 RETURN JUMPDEST CALLVALUE DUP1 ISZERO PUSH2 0x19B JUMPI PUSH1 0x0 DUP1 REVERT JUMPDEST POP PUSH2 0x1B6 PUSH1 0x4 DUP1 CALLDATASIZE SUB DUP2 ADD SWAP1 PUSH2 0x1B1 SWAP2 SWAP1 PUSH2 0x12AC JUMP JUMPDEST PUSH2 0x5CE JUMP JUMPDEST PUSH1 0x40 MLOAD PUSH2 0x1C3 SWAP2 SWAP1 PUSH2 0x15F6 JUMP JUMPDEST PUSH1 0x40 MLOAD DUP1 SWAP2 SUB SWAP1 RETURN JUMPDEST CALLVALUE DUP1 ISZERO PUSH2 0x1D8 JUMPI PUSH1 0x0 DUP1 REVERT JUMPDEST POP PUSH2 0x1E1 PUSH2 0x73B JUMP JUMPDEST PUSH1 0x40 MLOAD PUSH2 0x1EE SWAP2 SWAP1 PUSH2 0x16DA JUMP JUMPDEST PUSH1 0x40 MLOAD DUP1 SWAP2 SUB SWAP1 RETURN JUMPDEST CALLVALUE DUP1 ISZERO PUSH2 0x203 JUMPI PUSH1 0x0 DUP1 REVERT JUMPDEST POP PUSH2 0x20C PUSH2 0x891 JUMP JUMPDEST PUSH1 0x40 MLOAD PUSH2 0x219 SWAP2 SWAP1 PUSH2 0x16DA JUMP JUMPDEST PUSH1 0x40 MLOAD DUP1 SWAP2 SUB SWAP1 RETURN JUMPDEST CALLVALUE DUP1 ISZERO PUSH2 0x22E JUMPI PUSH1 0x0 DUP1 REVERT JUMPDEST POP PUSH2 0x249 PUSH1 0x4 DUP1 CALLDATASIZE SUB DUP2 ADD SWAP1 PUSH2 0x244 SWAP2 SWAP1 PUSH2 0x16FC JUMP JUMPDEST PUSH2 0xA95 JUMP JUMPDEST STOP JUMPDEST PUSH2 0x265 PUSH1 0x4 DUP1 CALLDATASIZE SUB DUP2 ADD SWAP1 PUSH2 0x260 SWAP2 SWAP1 PUSH2 0x12AC JUMP JUMPDEST PUSH2 0xB1B JUMP JUMPDEST PUSH1 0x40 MLOAD PUSH2 0x272 SWAP2 SWAP1 PUSH2 0x13F3 JUMP JUMPDEST PUSH1 0x40 MLOAD DUP1 SWAP2 SUB SWAP1 RETURN JUMPDEST PUSH1 0x0 DUP2 PUSH1 0x0 PUSH2 0x289 DUP3 PUSH2 0xCBE JUMP JUMPDEST SWAP1 POP PUSH2 0x29F DUP2 PUSH1 0x2 PUSH2 0xCEE SWAP1 SWAP2 SWAP1 PUSH4 0xFFFFFFFF AND JUMP JUMPDEST PUSH2 0x2E0 JUMPI DUP2 PUSH1 0x40 MLOAD PUSH32 0x772C688900000000000000000000000000000000000000000000000000000000 DUP2 MSTORE PUSH1 0x4 ADD PUSH2 0x2D7 SWAP2 SWAP1 PUSH2 0x1773 JUMP JUMPDEST PUSH1 0x40 MLOAD DUP1 SWAP2 SUB SWAP1 REVERT JUMPDEST PUSH1 0x0 PUSH1 0x1 PUSH1 0x0 PUSH2 0x2EF DUP8 PUSH2 0xCBE JUMP JUMPDEST DUP2 MSTORE PUSH1 0x20 ADD SWAP1 DUP2 MSTORE PUSH1 0x20 ADD PUSH1 0x0 KECCAK256 SWAP1 POP PUSH2 0x315 CALLER DUP3 PUSH1 0x4 ADD PUSH2 0xD05 SWAP1 SWAP2 SWAP1 PUSH4 0xFFFFFFFF AND JUMP JUMPDEST SWAP4 POP POP POP POP SWAP2 SWAP1 POP JUMP JUMPDEST PUSH1 0x0 PUSH2 0x329 PUSH2 0xD35 JUMP JUMPDEST PUSH1 0x0 PUSH2 0x334 DUP7 PUSH2 0xCBE JUMP JUMPDEST SWAP1 POP PUSH2 0x34A DUP2 PUSH1 0x2 PUSH2 0xCEE SWAP1 SWAP2 SWAP1 PUSH4 0xFFFFFFFF AND JUMP JUMPDEST ISZERO PUSH2 0x38C JUMPI DUP6 PUSH1 0x40 MLOAD PUSH32 0x7175ED4000000000000000000000000000000000000000000000000000000000 DUP2 MSTORE PUSH1 0x4 ADD PUSH2 0x383 SWAP2 SWAP1 PUSH2 0x1773 JUMP JUMPDEST PUSH1 0x40 MLOAD DUP1 SWAP2 SUB SWAP1 REVERT JUMPDEST PUSH2 0x3A0 DUP2 PUSH1 0x2 PUSH2 0xDBC SWAP1 SWAP2 SWAP1 PUSH4 0xFFFFFFFF AND JUMP JUMPDEST POP DUP6 PUSH1 0x1 PUSH1 0x0 DUP4 DUP2 MSTORE PUSH1 0x20 ADD SWAP1 DUP2 MSTORE PUSH1 0x20 ADD PUSH1 0x0 KECCAK256 PUSH1 0x0 ADD SWAP1 DUP2 PUSH2 0x3C4 SWAP2 SWAP1 PUSH2 0x19A1 JUMP JUMPDEST POP DUP5 PUSH1 0x1 PUSH1 0x0 DUP4 DUP2 MSTORE PUSH1 0x20 ADD SWAP1 DUP2 MSTORE PUSH1 0x20 ADD PUSH1 0x0 KECCAK256 PUSH1 0x1 ADD DUP2 SWAP1 SSTORE POP DUP4 PUSH1 0x1 PUSH1 0x0 DUP4 DUP2 MSTORE PUSH1 0x20 ADD SWAP1 DUP2 MSTORE PUSH1 0x20 ADD PUSH1 0x0 KECCAK256 PUSH1 0x2 ADD DUP2 SWAP1 SSTORE POP DUP3 PUSH1 0x1 PUSH1 0x0 DUP4 DUP2 MSTORE PUSH1 0x20 ADD SWAP1 DUP2 MSTORE PUSH1 0x20 ADD PUSH1 0x0 KECCAK256 PUSH1 0x3 ADD DUP2 SWAP1 SSTORE POP PUSH1 0x1 SWAP2 POP POP SWAP5 SWAP4 POP POP POP POP JUMP JUMPDEST PUSH1 0x0 DUP3 PUSH1 0x0 PUSH2 0x431 DUP3 PUSH2 0xCBE JUMP JUMPDEST SWAP1 POP PUSH2 0x447 DUP2 PUSH1 0x2 PUSH2 0xCEE SWAP1 SWAP2 SWAP1 PUSH4 0xFFFFFFFF AND JUMP JUMPDEST PUSH2 0x488 JUMPI DUP2 PUSH1 0x40 MLOAD PUSH32 0x772C688900000000000000000000000000000000000000000000000000000000 DUP2 MSTORE PUSH1 0x4 ADD PUSH2 0x47F SWAP2 SWAP1 PUSH2 0x1773 JUMP JUMPDEST PUSH1 0x40 MLOAD DUP1 SWAP2 SUB SWAP1 REVERT JUMPDEST PUSH1 0x0 PUSH1 0x1 PUSH1 0x0 PUSH2 0x497 DUP9 PUSH2 0xCBE JUMP JUMPDEST DUP2 MSTORE PUSH1 0x20 ADD SWAP1 DUP2 MSTORE PUSH1 0x20 ADD PUSH1 0x0 KECCAK256 SWAP1 POP PUSH2 0x4BD CALLER DUP3 PUSH1 0x4 ADD PUSH2 0xD05 SWAP1 SWAP2 SWAP1 PUSH4 0xFFFFFFFF AND JUMP JUMPDEST PUSH2 0x4FE JUMPI CALLER PUSH1 0x40 MLOAD PUSH32 0x245AECD300000000000000000000000000000000000000000000000000000000 DUP2 MSTORE PUSH1 0x4 ADD PUSH2 0x4F5 SWAP2 SWAP1 PUSH2 0x14D7 JUMP JUMPDEST PUSH1 0x40 MLOAD DUP1 SWAP2 SUB SWAP1 REVERT JUMPDEST PUSH2 0x514 DUP6 DUP3 PUSH1 0x4 ADD PUSH2 0xD05 SWAP1 SWAP2 SWAP1 PUSH4 0xFFFFFFFF AND JUMP JUMPDEST ISZERO PUSH2 0x556 JUMPI DUP5 PUSH1 0x40 MLOAD PUSH32 0x8BEB928C00000000000000000000000000000000000000000000000000000000 DUP2 MSTORE PUSH1 0x4 ADD PUSH2 0x54D SWAP2 SWAP1 PUSH2 0x14D7 JUMP JUMPDEST PUSH1 0x40 MLOAD DUP1 SWAP2 SUB SWAP1 REVERT JUMPDEST PUSH2 0x56C CALLER DUP3 PUSH1 0x4 ADD PUSH2 0xDD3 SWAP1 SWAP2 SWAP1 PUSH4 0xFFFFFFFF AND JUMP JUMPDEST POP PUSH2 0x583 DUP6 DUP3 PUSH1 0x4 ADD PUSH2 0xE03 SWAP1 SWAP2 SWAP1 PUSH4 0xFFFFFFFF AND JUMP JUMPDEST POP PUSH1 0x1 SWAP4 POP POP POP POP SWAP3 SWAP2 POP POP JUMP JUMPDEST PUSH2 0x599 PUSH2 0xD35 JUMP JUMPDEST PUSH2 0x5A3 PUSH1 0x0 PUSH2 0xE33 JUMP JUMPDEST JUMP JUMPDEST PUSH1 0x0 DUP1 PUSH1 0x0 SWAP1 SLOAD SWAP1 PUSH2 0x100 EXP SWAP1 DIV PUSH20 0xFFFFFFFFFFFFFFFFFFFFFFFFFFFFFFFFFFFFFFFF AND SWAP1 POP SWAP1 JUMP JUMPDEST PUSH2 0x5D6 PUSH2 0x1123 JUMP JUMPDEST DUP2 PUSH1 0x0 PUSH2 0x5E2 DUP3 PUSH2 0xCBE JUMP JUMPDEST SWAP1 POP PUSH2 0x5F8 DUP2 PUSH1 0x2 PUSH2 0xCEE SWAP1 SWAP2 SWAP1 PUSH4 0xFFFFFFFF AND JUMP JUMPDEST PUSH2 0x639 JUMPI DUP2 PUSH1 0x40 MLOAD PUSH32 0x772C688900000000000000000000000000000000000000000000000000000000 DUP2 MSTORE PUSH1 0x4 ADD PUSH2 0x630 SWAP2 SWAP1 PUSH2 0x1773 JUMP JUMPDEST PUSH1 0x40 MLOAD DUP1 SWAP2 SUB SWAP1 REVERT JUMPDEST PUSH1 0x0 PUSH1 0x1 PUSH1 0x0 PUSH2 0x648 DUP8 PUSH2 0xCBE JUMP JUMPDEST DUP2 MSTORE PUSH1 0x20 ADD SWAP1 DUP2 MSTORE PUSH1 0x20 ADD PUSH1 0x0 KECCAK256 SWAP1 POP PUSH1 0x40 MLOAD DUP1 PUSH1 0xA0 ADD PUSH1 0x40 MSTORE DUP1 DUP3 PUSH1 0x0 ADD DUP1 SLOAD PUSH2 0x672 SWAP1 PUSH2 0x17C4 JUMP JUMPDEST DUP1 PUSH1 0x1F ADD PUSH1 0x20 DUP1 SWAP2 DIV MUL PUSH1 0x20 ADD PUSH1 0x40 MLOAD SWAP1 DUP2 ADD PUSH1 0x40 MSTORE DUP1 SWAP3 SWAP2 SWAP1 DUP2 DUP2 MSTORE PUSH1 0x20 ADD DUP3 DUP1 SLOAD PUSH2 0x69E SWAP1 PUSH2 0x17C4 JUMP JUMPDEST DUP1 ISZERO PUSH2 0x6EB JUMPI DUP1 PUSH1 0x1F LT PUSH2 0x6C0 JUMPI PUSH2 0x100 DUP1 DUP4 SLOAD DIV MUL DUP4 MSTORE SWAP2 PUSH1 0x20 ADD SWAP2 PUSH2 0x6EB JUMP JUMPDEST DUP3 ADD SWAP2 SWAP1 PUSH1 0x0 MSTORE PUSH1 0x20 PUSH1 0x0 KECCAK256 SWAP1 JUMPDEST DUP2 SLOAD DUP2 MSTORE SWAP1 PUSH1 0x1 ADD SWAP1 PUSH1 0x20 ADD DUP1 DUP4 GT PUSH2 0x6CE JUMPI DUP3 SWAP1 SUB PUSH1 0x1F AND DUP3 ADD SWAP2 JUMPDEST POP POP POP POP POP DUP2 MSTORE PUSH1 0x20 ADD DUP3 PUSH1 0x1 ADD SLOAD DUP2 MSTORE PUSH1 0x20 ADD DUP3 PUSH1 0x2 ADD SLOAD DUP2 MSTORE PUSH1 0x20 ADD DUP3 PUSH1 0x3 ADD SLOAD DUP2 MSTORE PUSH1 0x20 ADD PUSH2 0x71F DUP4 PUSH1 0x4 ADD PUSH2 0xEF7 JUMP JUMPDEST DUP4 PUSH1 0x3 ADD SLOAD PUSH2 0x72E SWAP2 SWAP1 PUSH2 0x1AA2 JUMP JUMPDEST DUP2 MSTORE POP SWAP4 POP POP POP POP SWAP2 SWAP1 POP JUMP JUMPDEST PUSH1 0x60 PUSH1 0x0 PUSH2 0x749 PUSH1 0x2 PUSH2 0xF0C JUMP JUMPDEST PUSH8 0xFFFFFFFFFFFFFFFF DUP2 GT ISZERO PUSH2 0x762 JUMPI PUSH2 0x761 PUSH2 0x1181 JUMP JUMPDEST JUMPDEST PUSH1 0x40 MLOAD SWAP1 DUP1 DUP3 MSTORE DUP1 PUSH1 0x20 MUL PUSH1 0x20 ADD DUP3 ADD PUSH1 0x40 MSTORE DUP1 ISZERO PUSH2 0x795 JUMPI DUP2 PUSH1 0x20 ADD JUMPDEST PUSH1 0x60 DUP2 MSTORE PUSH1 0x20 ADD SWAP1 PUSH1 0x1 SWAP1 SUB SWAP1 DUP2 PUSH2 0x780 JUMPI SWAP1 POP JUMPDEST POP SWAP1 POP PUSH1 0x0 JUMPDEST PUSH2 0x7A5 PUSH1 0x2 PUSH2 0xF0C JUMP JUMPDEST DUP2 LT ISZERO PUSH2 0x889 JUMPI PUSH1 0x1 PUSH1 0x0 PUSH2 0x7C4 DUP4 PUSH1 0x2 PUSH2 0xF21 SWAP1 SWAP2 SWAP1 PUSH4 0xFFFFFFFF AND JUMP JUMPDEST DUP2 MSTORE PUSH1 0x20 ADD SWAP1 DUP2 MSTORE PUSH1 0x20 ADD PUSH1 0x0 KECCAK256 PUSH1 0x0 ADD DUP1 SLOAD PUSH2 0x7E0 SWAP1 PUSH2 0x17C4 JUMP JUMPDEST DUP1 PUSH1 0x1F ADD PUSH1 0x20 DUP1 SWAP2 DIV MUL PUSH1 0x20 ADD PUSH1 0x40 MLOAD SWAP1 DUP2 ADD PUSH1 0x40 MSTORE DUP1 SWAP3 SWAP2 SWAP1 DUP2 DUP2 MSTORE PUSH1 0x20 ADD DUP3 DUP1 SLOAD PUSH2 0x80C SWAP1 PUSH2 0x17C4 JUMP JUMPDEST DUP1 ISZERO PUSH2 0x859 JUMPI DUP1 PUSH1 0x1F LT PUSH2 0x82E JUMPI PUSH2 0x100 DUP1 DUP4 SLOAD DIV MUL DUP4 MSTORE SWAP2 PUSH1 0x20 ADD SWAP2 PUSH2 0x859 JUMP JUMPDEST DUP3 ADD SWAP2 SWAP1 PUSH1 0x0 MSTORE PUSH1 0x20 PUSH1 0x0 KECCAK256 SWAP1 JUMPDEST DUP2 SLOAD DUP2 MSTORE SWAP1 PUSH1 0x1 ADD SWAP1 PUSH1 0x20 ADD DUP1 DUP4 GT PUSH2 0x83C JUMPI DUP3 SWAP1 SUB PUSH1 0x1F AND DUP3 ADD SWAP2 JUMPDEST POP POP POP POP POP DUP3 DUP3 DUP2 MLOAD DUP2 LT PUSH2 0x871 JUMPI PUSH2 0x870 PUSH2 0x1AD6 JUMP JUMPDEST JUMPDEST PUSH1 0x20 MUL PUSH1 0x20 ADD ADD DUP2 SWAP1 MSTORE POP DUP1 DUP1 PUSH1 0x1 ADD SWAP2 POP POP PUSH2 0x79B JUMP JUMPDEST POP DUP1 SWAP2 POP POP SWAP1 JUMP JUMPDEST PUSH1 0x60 PUSH1 0x0 DUP1 JUMPDEST PUSH2 0x8A1 PUSH1 0x2 PUSH2 0xF0C JUMP JUMPDEST DUP2 LT ISZERO PUSH2 0x910 JUMPI PUSH1 0x0 PUSH2 0x8BE DUP3 PUSH1 0x2 PUSH2 0xF21 SWAP1 SWAP2 SWAP1 PUSH4 0xFFFFFFFF AND JUMP JUMPDEST SWAP1 POP PUSH1 0x0 PUSH1 0x1 PUSH1 0x0 DUP4 DUP2 MSTORE PUSH1 0x20 ADD SWAP1 DUP2 MSTORE PUSH1 0x20 ADD PUSH1 0x0 KECCAK256 SWAP1 POP PUSH2 0x8ED CALLER DUP3 PUSH1 0x4 ADD PUSH2 0xD05 SWAP1 SWAP2 SWAP1 PUSH4 0xFFFFFFFF AND JUMP JUMPDEST ISZERO PUSH2 0x901 JUMPI DUP4 DUP1 PUSH2 0x8FD SWAP1 PUSH2 0x1B05 JUMP JUMPDEST SWAP5 POP POP JUMPDEST POP POP DUP1 DUP1 PUSH1 0x1 ADD SWAP2 POP POP PUSH2 0x897 JUMP JUMPDEST POP PUSH1 0x0 DUP2 PUSH8 0xFFFFFFFFFFFFFFFF DUP2 GT ISZERO PUSH2 0x92D JUMPI PUSH2 0x92C PUSH2 0x1181 JUMP JUMPDEST JUMPDEST PUSH1 0x40 MLOAD SWAP1 DUP1 DUP3 MSTORE DUP1 PUSH1 0x20 MUL PUSH1 0x20 ADD DUP3 ADD PUSH1 0x40 MSTORE DUP1 ISZERO PUSH2 0x960 JUMPI DUP2 PUSH1 0x20 ADD JUMPDEST PUSH1 0x60 DUP2 MSTORE PUSH1 0x20 ADD SWAP1 PUSH1 0x1 SWAP1 SUB SWAP1 DUP2 PUSH2 0x94B JUMPI SWAP1 POP JUMPDEST POP SWAP1 POP PUSH1 0x0 DUP1 JUMPDEST PUSH2 0x971 PUSH1 0x2 PUSH2 0xF0C JUMP JUMPDEST DUP2 LT ISZERO PUSH2 0xA8B JUMPI PUSH1 0x0 PUSH2 0x98E DUP3 PUSH1 0x2 PUSH2 0xF21 SWAP1 SWAP2 SWAP1 PUSH4 0xFFFFFFFF AND JUMP JUMPDEST SWAP1 POP PUSH1 0x0 PUSH1 0x1 PUSH1 0x0 DUP4 DUP2 MSTORE PUSH1 0x20 ADD SWAP1 DUP2 MSTORE PUSH1 0x20 ADD PUSH1 0x0 KECCAK256 SWAP1 POP PUSH2 0x9BD CALLER DUP3 PUSH1 0x4 ADD PUSH2 0xD05 SWAP1 SWAP2 SWAP1 PUSH4 0xFFFFFFFF AND JUMP JUMPDEST ISZERO PUSH2 0xA7C JUMPI DUP1 PUSH1 0x0 ADD DUP1 SLOAD PUSH2 0x9D1 SWAP1 PUSH2 0x17C4 JUMP JUMPDEST DUP1 PUSH1 0x1F ADD PUSH1 0x20 DUP1 SWAP2 DIV MUL PUSH1 0x20 ADD PUSH1 0x40 MLOAD SWAP1 DUP2 ADD PUSH1 0x40 MSTORE DUP1 SWAP3 SWAP2 SWAP1 DUP2 DUP2 MSTORE PUSH1 0x20 ADD DUP3 DUP1 SLOAD PUSH2 0x9FD SWAP1 PUSH2 0x17C4 JUMP JUMPDEST DUP1 ISZERO PUSH2 0xA4A JUMPI DUP1 PUSH1 0x1F LT PUSH2 0xA1F JUMPI PUSH2 0x100 DUP1 DUP4 SLOAD DIV MUL DUP4 MSTORE SWAP2 PUSH1 0x20 ADD SWAP2 PUSH2 0xA4A JUMP JUMPDEST DUP3 ADD SWAP2 SWAP1 PUSH1 0x0 MSTORE PUSH1 0x20 PUSH1 0x0 KECCAK256 SWAP1 JUMPDEST DUP2 SLOAD DUP2 MSTORE SWAP1 PUSH1 0x1 ADD SWAP1 PUSH1 0x20 ADD DUP1 DUP4 GT PUSH2 0xA2D JUMPI DUP3 SWAP1 SUB PUSH1 0x1F AND DUP3 ADD SWAP2 JUMPDEST POP POP POP POP POP DUP6 DUP6 DUP2 MLOAD DUP2 LT PUSH2 0xA62 JUMPI PUSH2 0xA61 PUSH2 0x1AD6 JUMP JUMPDEST JUMPDEST PUSH1 0x20 MUL PUSH1 0x20 ADD ADD DUP2 SWAP1 MSTORE POP DUP4 DUP1 PUSH2 0xA78 SWAP1 PUSH2 0x1B05 JUMP JUMPDEST SWAP5 POP POP JUMPDEST POP POP DUP1 DUP1 PUSH1 0x1 ADD SWAP2 POP POP PUSH2 0x967 JUMP JUMPDEST POP DUP2 SWAP4 POP POP POP POP SWAP1 JUMP JUMPDEST PUSH2 0xA9D PUSH2 0xD35 JUMP JUMPDEST PUSH1 0x0 PUSH20 0xFFFFFFFFFFFFFFFFFFFFFFFFFFFFFFFFFFFFFFFF AND DUP2 PUSH20 0xFFFFFFFFFFFFFFFFFFFFFFFFFFFFFFFFFFFFFFFF AND SUB PUSH2 0xB0F JUMPI PUSH1 0x0 PUSH1 0x40 MLOAD PUSH32 0x1E4FBDF700000000000000000000000000000000000000000000000000000000 DUP2 MSTORE PUSH1 0x4 ADD PUSH2 0xB06 SWAP2 SWAP1 PUSH2 0x14D7 JUMP JUMPDEST PUSH1 0x40 MLOAD DUP1 SWAP2 SUB SWAP1 REVERT JUMPDEST PUSH2 0xB18 DUP2 PUSH2 0xE33 JUMP JUMPDEST POP JUMP JUMPDEST PUSH1 0x0 DUP2 PUSH1 0x0 PUSH2 0xB29 DUP3 PUSH2 0xCBE JUMP JUMPDEST SWAP1 POP PUSH2 0xB3F DUP2 PUSH1 0x2 PUSH2 0xCEE SWAP1 SWAP2 SWAP1 PUSH4 0xFFFFFFFF AND JUMP JUMPDEST PUSH2 0xB80 JUMPI DUP2 PUSH1 0x40 MLOAD PUSH32 0x772C688900000000000000000000000000000000000000000000000000000000 DUP2 MSTORE PUSH1 0x4 ADD PUSH2 0xB77 SWAP2 SWAP1 PUSH2 0x1773 JUMP JUMPDEST PUSH1 0x40 MLOAD DUP1 SWAP2 SUB SWAP1 REVERT JUMPDEST PUSH1 0x0 PUSH1 0x1 PUSH1 0x0 PUSH2 0xB8F DUP8 PUSH2 0xCBE JUMP JUMPDEST DUP2 MSTORE PUSH1 0x20 ADD SWAP1 DUP2 MSTORE PUSH1 0x20 ADD PUSH1 0x0 KECCAK256 SWAP1 POP PUSH2 0xBB5 CALLER DUP3 PUSH1 0x4 ADD PUSH2 0xD05 SWAP1 SWAP2 SWAP1 PUSH4 0xFFFFFFFF AND JUMP JUMPDEST ISZERO PUSH2 0xBF7 JUMPI CALLER PUSH1 0x40 MLOAD PUSH32 0x8BEB928C00000000000000000000000000000000000000000000000000000000 DUP2 MSTORE PUSH1 0x4 ADD PUSH2 0xBEE SWAP2 SWAP1 PUSH2 0x14D7 JUMP JUMPDEST PUSH1 0x40 MLOAD DUP1 SWAP2 SUB SWAP1 REVERT JUMPDEST DUP1 PUSH1 0x3 ADD SLOAD PUSH2 0xC08 DUP3 PUSH1 0x4 ADD PUSH2 0xEF7 JUMP JUMPDEST SUB PUSH2 0xC4E JUMPI DUP1 PUSH1 0x3 ADD SLOAD PUSH1 0x40 MLOAD PUSH32 0xE6850DFE00000000000000000000000000000000000000000000000000000000 DUP2 MSTORE PUSH1 0x4 ADD PUSH2 0xC45 SWAP2 SWAP1 PUSH2 0x13F3 JUMP JUMPDEST PUSH1 0x40 MLOAD DUP1 SWAP2 SUB SWAP1 REVERT JUMPDEST DUP1 PUSH1 0x2 ADD SLOAD CALLVALUE LT ISZERO PUSH2 0xC9B JUMPI DUP1 PUSH1 0x2 ADD SLOAD PUSH1 0x40 MLOAD PUSH32 0x4C7AE57100000000000000000000000000000000000000000000000000000000 DUP2 MSTORE PUSH1 0x4 ADD PUSH2 0xC92 SWAP2 SWAP1 PUSH2 0x13F3 JUMP JUMPDEST PUSH1 0x40 MLOAD DUP1 SWAP2 SUB SWAP1 REVERT JUMPDEST PUSH2 0xCB1 CALLER DUP3 PUSH1 0x4 ADD PUSH2 0xE03 SWAP1 SWAP2 SWAP1 PUSH4 0xFFFFFFFF AND JUMP JUMPDEST POP PUSH1 0x1 SWAP4 POP POP POP POP SWAP2 SWAP1 POP JUMP JUMPDEST PUSH1 0x0 DUP2 PUSH1 0x40 MLOAD PUSH1 0x20 ADD PUSH2 0xCD1 SWAP2 SWAP1 PUSH2 0x1B89 JUMP JUMPDEST PUSH1 0x40 MLOAD PUSH1 0x20 DUP2 DUP4 SUB SUB DUP2 MSTORE SWAP1 PUSH1 0x40 MSTORE DUP1 MLOAD SWAP1 PUSH1 0x20 ADD KECCAK256 SWAP1 POP SWAP2 SWAP1 POP JUMP JUMPDEST PUSH1 0x0 PUSH2 0xCFD DUP4 PUSH1 0x0 ADD DUP4 PUSH2 0xF38 JUMP JUMPDEST SWAP1 POP SWAP3 SWAP2 POP POP JUMP JUMPDEST PUSH1 0x0 PUSH2 0xD2D DUP4 PUSH1 0x0 ADD DUP4 PUSH20 0xFFFFFFFFFFFFFFFFFFFFFFFFFFFFFFFFFFFFFFFF AND PUSH1 0x0 SHL PUSH2 0xF38 JUMP JUMPDEST SWAP1 POP SWAP3 SWAP2 POP POP JUMP JUMPDEST PUSH2 0xD3D PUSH2 0xF5B JUMP JUMPDEST PUSH20 0xFFFFFFFFFFFFFFFFFFFFFFFFFFFFFFFFFFFFFFFF AND PUSH2 0xD5B PUSH2 0x5A5 JUMP JUMPDEST PUSH20 0xFFFFFFFFFFFFFFFFFFFFFFFFFFFFFFFFFFFFFFFF AND EQ PUSH2 0xDBA JUMPI PUSH2 0xD7E PUSH2 0xF5B JUMP JUMPDEST PUSH1 0x40 MLOAD PUSH32 0x118CDAA700000000000000000000000000000000000000000000000000000000 DUP2 MSTORE PUSH1 0x4 ADD PUSH2 0xDB1 SWAP2 SWAP1 PUSH2 0x14D7 JUMP JUMPDEST PUSH1 0x40 MLOAD DUP1 SWAP2 SUB SWAP1 REVERT JUMPDEST JUMP JUMPDEST PUSH1 0x0 PUSH2 0xDCB DUP4 PUSH1 0x0 ADD DUP4 PUSH2 0xF63 JUMP JUMPDEST SWAP1 POP SWAP3 SWAP2 POP POP JUMP JUMPDEST PUSH1 0x0 PUSH2 0xDFB DUP4 PUSH1 0x0 ADD DUP4 PUSH20 0xFFFFFFFFFFFFFFFFFFFFFFFFFFFFFFFFFFFFFFFF AND PUSH1 0x0 SHL PUSH2 0xFD3 JUMP JUMPDEST SWAP1 POP SWAP3 SWAP2 POP POP JUMP JUMPDEST PUSH1 0x0 PUSH2 0xE2B DUP4 PUSH1 0x0 ADD DUP4 PUSH20 0xFFFFFFFFFFFFFFFFFFFFFFFFFFFFFFFFFFFFFFFF AND PUSH1 0x0 SHL PUSH2 0xF63 JUMP JUMPDEST SWAP1 POP SWAP3 SWAP2 POP POP JUMP JUMPDEST PUSH1 0x0 DUP1 PUSH1 0x0 SWAP1 SLOAD SWAP1 PUSH2 0x100 EXP SWAP1 DIV PUSH20 0xFFFFFFFFFFFFFFFFFFFFFFFFFFFFFFFFFFFFFFFF AND SWAP1 POP DUP2 PUSH1 0x0 DUP1 PUSH2 0x100 EXP DUP2 SLOAD DUP2 PUSH20 0xFFFFFFFFFFFFFFFFFFFFFFFFFFFFFFFFFFFFFFFF MUL NOT AND SWAP1 DUP4 PUSH20 0xFFFFFFFFFFFFFFFFFFFFFFFFFFFFFFFFFFFFFFFF AND MUL OR SWAP1 SSTORE POP DUP2 PUSH20 0xFFFFFFFFFFFFFFFFFFFFFFFFFFFFFFFFFFFFFFFF AND DUP2 PUSH20 0xFFFFFFFFFFFFFFFFFFFFFFFFFFFFFFFFFFFFFFFF AND PUSH32 0x8BE0079C531659141344CD1FD0A4F28419497F9722A3DAAFE3B4186F6B6457E0 PUSH1 0x40 MLOAD PUSH1 0x40 MLOAD DUP1 SWAP2 SUB SWAP1 LOG3 POP POP JUMP JUMPDEST PUSH1 0x0 PUSH2 0xF05 DUP3 PUSH1 0x0 ADD PUSH2 0x10E7 JUMP JUMPDEST SWAP1 POP SWAP2 SWAP1 POP JUMP JUMPDEST PUSH1 0x0 PUSH2 0xF1A DUP3 PUSH1 0x0 ADD PUSH2 0x10E7 JUMP JUMPDEST SWAP1 POP SWAP2 SWAP1 POP JUMP JUMPDEST PUSH1 0x0 PUSH2 0xF30 DUP4 PUSH1 0x0 ADD DUP4 PUSH2 0x10F8 JUMP JUMPDEST SWAP1 POP SWAP3 SWAP2 POP POP JUMP JUMPDEST PUSH1 0x0 DUP1 DUP4 PUSH1 0x1 ADD PUSH1 0x0 DUP5 DUP2 MSTORE PUSH1 0x20 ADD SWAP1 DUP2 MSTORE PUSH1 0x20 ADD PUSH1 0x0 KECCAK256 SLOAD EQ ISZERO SWAP1 POP SWAP3 SWAP2 POP POP JUMP JUMPDEST PUSH1 0x0 CALLER SWAP1 POP SWAP1 JUMP JUMPDEST PUSH1 0x0 PUSH2 0xF6F DUP4 DUP4 PUSH2 0xF38 JUMP JUMPDEST PUSH2 0xFC8 JUMPI DUP3 PUSH1 0x0 ADD DUP3 SWAP1 DUP1 PUSH1 0x1 DUP2 SLOAD ADD DUP1 DUP3 SSTORE DUP1 SWAP2 POP POP PUSH1 0x1 SWAP1 SUB SWAP1 PUSH1 0x0 MSTORE PUSH1 0x20 PUSH1 0x0 KECCAK256 ADD PUSH1 0x0 SWAP1 SWAP2 SWAP1 SWAP2 SWAP1 SWAP2 POP SSTORE DUP3 PUSH1 0x0 ADD DUP1 SLOAD SWAP1 POP DUP4 PUSH1 0x1 ADD PUSH1 0x0 DUP5 DUP2 MSTORE PUSH1 0x20 ADD SWAP1 DUP2 MSTORE PUSH1 0x20 ADD PUSH1 0x0 KECCAK256 DUP2 SWAP1 SSTORE POP PUSH1 0x1 SWAP1 POP PUSH2 0xFCD JUMP JUMPDEST PUSH1 0x0 SWAP1 POP JUMPDEST SWAP3 SWAP2 POP POP JUMP JUMPDEST PUSH1 0x0 DUP1 DUP4 PUSH1 0x1 ADD PUSH1 0x0 DUP5 DUP2 MSTORE PUSH1 0x20 ADD SWAP1 DUP2 MSTORE PUSH1 0x20 ADD PUSH1 0x0 KECCAK256 SLOAD SWAP1 POP PUSH1 0x0 DUP2 EQ PUSH2 0x10DB JUMPI PUSH1 0x0 PUSH1 0x1 DUP3 PUSH2 0x1005 SWAP2 SWAP1 PUSH2 0x1AA2 JUMP JUMPDEST SWAP1 POP PUSH1 0x0 PUSH1 0x1 DUP7 PUSH1 0x0 ADD DUP1 SLOAD SWAP1 POP PUSH2 0x101D SWAP2 SWAP1 PUSH2 0x1AA2 JUMP JUMPDEST SWAP1 POP DUP1 DUP3 EQ PUSH2 0x108C JUMPI PUSH1 0x0 DUP7 PUSH1 0x0 ADD DUP3 DUP2 SLOAD DUP2 LT PUSH2 0x103E JUMPI PUSH2 0x103D PUSH2 0x1AD6 JUMP JUMPDEST JUMPDEST SWAP1 PUSH1 0x0 MSTORE PUSH1 0x20 PUSH1 0x0 KECCAK256 ADD SLOAD SWAP1 POP DUP1 DUP8 PUSH1 0x0 ADD DUP5 DUP2 SLOAD DUP2 LT PUSH2 0x1062 JUMPI PUSH2 0x1061 PUSH2 0x1AD6 JUMP JUMPDEST JUMPDEST SWAP1 PUSH1 0x0 MSTORE PUSH1 0x20 PUSH1 0x0 KECCAK256 ADD DUP2 SWAP1 SSTORE POP DUP4 DUP8 PUSH1 0x1 ADD PUSH1 0x0 DUP4 DUP2 MSTORE PUSH1 0x20 ADD SWAP1 DUP2 MSTORE PUSH1 0x20 ADD PUSH1 0x0 KECCAK256 DUP2 SWAP1 SSTORE POP POP JUMPDEST DUP6 PUSH1 0x0 ADD DUP1 SLOAD DUP1 PUSH2 0x10A0 JUMPI PUSH2 0x109F PUSH2 0x1BA0 JUMP JUMPDEST JUMPDEST PUSH1 0x1 SWAP1 SUB DUP2 DUP2 SWAP1 PUSH1 0x0 MSTORE PUSH1 0x20 PUSH1 0x0 KECCAK256 ADD PUSH1 0x0 SWAP1 SSTORE SWAP1 SSTORE DUP6 PUSH1 0x1 ADD PUSH1 0x0 DUP7 DUP2 MSTORE PUSH1 0x20 ADD SWAP1 DUP2 MSTORE PUSH1 0x20 ADD PUSH1 0x0 KECCAK256 PUSH1 0x0 SWAP1 SSTORE PUSH1 0x1 SWAP4 POP POP POP POP PUSH2 0x10E1 JUMP JUMPDEST PUSH1 0x0 SWAP2 POP POP JUMPDEST SWAP3 SWAP2 POP POP JUMP JUMPDEST PUSH1 0x0 DUP2 PUSH1 0x0 ADD DUP1 SLOAD SWAP1 POP SWAP1 POP SWAP2 SWAP1 POP JUMP JUMPDEST PUSH1 0x0 DUP3 PUSH1 0x0 ADD DUP3 DUP2 SLOAD DUP2 LT PUSH2 0x1110 JUMPI PUSH2 0x110F PUSH2 0x1AD6 JUMP JUMPDEST JUMPDEST SWAP1 PUSH1 0x0 MSTORE PUSH1 0x20 PUSH1 0x0 KECCAK256 ADD SLOAD SWAP1 POP SWAP3 SWAP2 POP POP JUMP JUMPDEST PUSH1 0x40 MLOAD DUP1 PUSH1 0xA0 ADD PUSH1 0x40 MSTORE DUP1 PUSH1 0x60 DUP2 MSTORE PUSH1 0x20 ADD PUSH1 0x0 DUP2 MSTORE PUSH1 0x20 ADD PUSH1 0x0 DUP2 MSTORE PUSH1 0x20 ADD PUSH1 0x0 DUP2 MSTORE PUSH1 0x20 ADD PUSH1 0x0 DUP2 MSTORE POP SWAP1 JUMP JUMPDEST PUSH1 0x0 PUSH1 0x40 MLOAD SWAP1 POP SWAP1 JUMP JUMPDEST PUSH1 0x0 DUP1 REVERT JUMPDEST PUSH1 0x0 DUP1 REVERT JUMPDEST PUSH1 0x0 DUP1 REVERT JUMPDEST PUSH1 0x0 DUP1 REVERT JUMPDEST PUSH1 0x0 PUSH1 0x1F NOT PUSH1 0x1F DUP4 ADD AND SWAP1 POP SWAP2 SWAP1 POP JUMP JUMPDEST PUSH32 0x4E487B7100000000000000000000000000000000000000000000000000000000 PUSH1 0x0 MSTORE PUSH1 0x41 PUSH1 0x4 MSTORE PUSH1 0x24 PUSH1 0x0 REVERT JUMPDEST PUSH2 0x11B9 DUP3 PUSH2 0x1170 JUMP JUMPDEST DUP2 ADD DUP2 DUP2 LT PUSH8 0xFFFFFFFFFFFFFFFF DUP3 GT OR ISZERO PUSH2 0x11D8 JUMPI PUSH2 0x11D7 PUSH2 0x1181 JUMP JUMPDEST JUMPDEST DUP1 PUSH1 0x40 MSTORE POP POP POP JUMP JUMPDEST PUSH1 0x0 PUSH2 0x11EB PUSH2 0x1152 JUMP JUMPDEST SWAP1 POP PUSH2 0x11F7 DUP3 DUP3 PUSH2 0x11B0 JUMP JUMPDEST SWAP2 SWAP1 POP JUMP JUMPDEST PUSH1 0x0 PUSH8 0xFFFFFFFFFFFFFFFF DUP3 GT ISZERO PUSH2 0x1217 JUMPI PUSH2 0x1216 PUSH2 0x1181 JUMP JUMPDEST JUMPDEST PUSH2 0x1220 DUP3 PUSH2 0x1170 JUMP JUMPDEST SWAP1 POP PUSH1 0x20 DUP2 ADD SWAP1 POP SWAP2 SWAP1 POP JUMP JUMPDEST DUP3 DUP2 DUP4 CALLDATACOPY PUSH1 0x0 DUP4 DUP4 ADD MSTORE POP POP POP JUMP JUMPDEST PUSH1 0x0 PUSH2 0x124F PUSH2 0x124A DUP5 PUSH2 0x11FC JUMP JUMPDEST PUSH2 0x11E1 JUMP JUMPDEST SWAP1 POP DUP3 DUP2 MSTORE PUSH1 0x20 DUP2 ADD DUP5 DUP5 DUP5 ADD GT ISZERO PUSH2 0x126B JUMPI PUSH2 0x126A PUSH2 0x116B JUMP JUMPDEST JUMPDEST PUSH2 0x1276 DUP5 DUP3 DUP6 PUSH2 0x122D JUMP JUMPDEST POP SWAP4 SWAP3 POP POP POP JUMP JUMPDEST PUSH1 0x0 DUP3 PUSH1 0x1F DUP4 ADD SLT PUSH2 0x1293 JUMPI PUSH2 0x1292 PUSH2 0x1166 JUMP JUMPDEST JUMPDEST DUP2 CALLDATALOAD PUSH2 0x12A3 DUP5 DUP3 PUSH1 0x20 DUP7 ADD PUSH2 0x123C JUMP JUMPDEST SWAP2 POP POP SWAP3 SWAP2 POP POP JUMP JUMPDEST PUSH1 0x0 PUSH1 0x20 DUP3 DUP5 SUB SLT ISZERO PUSH2 0x12C2 JUMPI PUSH2 0x12C1 PUSH2 0x115C JUMP JUMPDEST JUMPDEST PUSH1 0x0 DUP3 ADD CALLDATALOAD PUSH8 0xFFFFFFFFFFFFFFFF DUP2 GT ISZERO PUSH2 0x12E0 JUMPI PUSH2 0x12DF PUSH2 0x1161 JUMP JUMPDEST JUMPDEST PUSH2 0x12EC DUP5 DUP3 DUP6 ADD PUSH2 0x127E JUMP JUMPDEST SWAP2 POP POP SWAP3 SWAP2 POP POP JUMP JUMPDEST PUSH1 0x0 DUP2 ISZERO ISZERO SWAP1 POP SWAP2 SWAP1 POP JUMP JUMPDEST PUSH2 0x130A DUP2 PUSH2 0x12F5 JUMP JUMPDEST DUP3 MSTORE POP POP JUMP JUMPDEST PUSH1 0x0 PUSH1 0x20 DUP3 ADD SWAP1 POP PUSH2 0x1325 PUSH1 0x0 DUP4 ADD DUP5 PUSH2 0x1301 JUMP JUMPDEST SWAP3 SWAP2 POP POP JUMP JUMPDEST PUSH1 0x0 DUP2 SWAP1 POP SWAP2 SWAP1 POP JUMP JUMPDEST PUSH2 0x133E DUP2 PUSH2 0x132B JUMP JUMPDEST DUP2 EQ PUSH2 0x1349 JUMPI PUSH1 0x0 DUP1 REVERT JUMPDEST POP JUMP JUMPDEST PUSH1 0x0 DUP2 CALLDATALOAD SWAP1 POP PUSH2 0x135B DUP2 PUSH2 0x1335 JUMP JUMPDEST SWAP3 SWAP2 POP POP JUMP JUMPDEST PUSH1 0x0 DUP1 PUSH1 0x0 DUP1 PUSH1 0x80 DUP6 DUP8 SUB SLT ISZERO PUSH2 0x137B JUMPI PUSH2 0x137A PUSH2 0x115C JUMP JUMPDEST JUMPDEST PUSH1 0x0 DUP6 ADD CALLDATALOAD PUSH8 0xFFFFFFFFFFFFFFFF DUP2 GT ISZERO PUSH2 0x1399 JUMPI PUSH2 0x1398 PUSH2 0x1161 JUMP JUMPDEST JUMPDEST PUSH2 0x13A5 DUP8 DUP3 DUP9 ADD PUSH2 0x127E JUMP JUMPDEST SWAP5 POP POP PUSH1 0x20 PUSH2 0x13B6 DUP8 DUP3 DUP9 ADD PUSH2 0x134C JUMP JUMPDEST SWAP4 POP POP PUSH1 0x40 PUSH2 0x13C7 DUP8 DUP3 DUP9 ADD PUSH2 0x134C JUMP JUMPDEST SWAP3 POP POP PUSH1 0x60 PUSH2 0x13D8 DUP8 DUP3 DUP9 ADD PUSH2 0x134C JUMP JUMPDEST SWAP2 POP POP SWAP3 SWAP6 SWAP2 SWAP5 POP SWAP3 POP JUMP JUMPDEST PUSH2 0x13ED DUP2 PUSH2 0x132B JUMP JUMPDEST DUP3 MSTORE POP POP JUMP JUMPDEST PUSH1 0x0 PUSH1 0x20 DUP3 ADD SWAP1 POP PUSH2 0x1408 PUSH1 0x0 DUP4 ADD DUP5 PUSH2 0x13E4 JUMP JUMPDEST SWAP3 SWAP2 POP POP JUMP JUMPDEST PUSH1 0x0 PUSH20 0xFFFFFFFFFFFFFFFFFFFFFFFFFFFFFFFFFFFFFFFF DUP3 AND SWAP1 POP SWAP2 SWAP1 POP JUMP JUMPDEST PUSH1 0x0 PUSH2 0x1439 DUP3 PUSH2 0x140E JUMP JUMPDEST SWAP1 POP SWAP2 SWAP1 POP JUMP JUMPDEST PUSH2 0x1449 DUP2 PUSH2 0x142E JUMP JUMPDEST DUP2 EQ PUSH2 0x1454 JUMPI PUSH1 0x0 DUP1 REVERT JUMPDEST POP JUMP JUMPDEST PUSH1 0x0 DUP2 CALLDATALOAD SWAP1 POP PUSH2 0x1466 DUP2 PUSH2 0x1440 JUMP JUMPDEST SWAP3 SWAP2 POP POP JUMP JUMPDEST PUSH1 0x0 DUP1 PUSH1 0x40 DUP4 DUP6 SUB SLT ISZERO PUSH2 0x1483 JUMPI PUSH2 0x1482 PUSH2 0x115C JUMP JUMPDEST JUMPDEST PUSH1 0x0 DUP4 ADD CALLDATALOAD PUSH8 0xFFFFFFFFFFFFFFFF DUP2 GT ISZERO PUSH2 0x14A1 JUMPI PUSH2 0x14A0 PUSH2 0x1161 JUMP JUMPDEST JUMPDEST PUSH2 0x14AD DUP6 DUP3 DUP7 ADD PUSH2 0x127E JUMP JUMPDEST SWAP3 POP POP PUSH1 0x20 PUSH2 0x14BE DUP6 DUP3 DUP7 ADD PUSH2 0x1457 JUMP JUMPDEST SWAP2 POP POP SWAP3 POP SWAP3 SWAP1 POP JUMP JUMPDEST PUSH2 0x14D1 DUP2 PUSH2 0x142E JUMP JUMPDEST DUP3 MSTORE POP POP JUMP JUMPDEST PUSH1 0x0 PUSH1 0x20 DUP3 ADD SWAP1 POP PUSH2 0x14EC PUSH1 0x0 DUP4 ADD DUP5 PUSH2 0x14C8 JUMP JUMPDEST SWAP3 SWAP2 POP POP JUMP JUMPDEST PUSH1 0x0 DUP2 MLOAD SWAP1 POP SWAP2 SWAP1 POP JUMP JUMPDEST PUSH1 0x0 DUP3 DUP3 MSTORE PUSH1 0x20 DUP3 ADD SWAP1 POP SWAP3 SWAP2 POP POP JUMP JUMPDEST PUSH1 0x0 JUMPDEST DUP4 DUP2 LT ISZERO PUSH2 0x152C JUMPI DUP1 DUP3 ADD MLOAD DUP2 DUP5 ADD MSTORE PUSH1 0x20 DUP2 ADD SWAP1 POP PUSH2 0x1511 JUMP JUMPDEST PUSH1 0x0 DUP5 DUP5 ADD MSTORE POP POP POP POP JUMP JUMPDEST PUSH1 0x0 PUSH2 0x1543 DUP3 PUSH2 0x14F2 JUMP JUMPDEST PUSH2 0x154D DUP2 DUP6 PUSH2 0x14FD JUMP JUMPDEST SWAP4 POP PUSH2 0x155D DUP2 DUP6 PUSH1 0x20 DUP7 ADD PUSH2 0x150E JUMP JUMPDEST PUSH2 0x1566 DUP2 PUSH2 0x1170 JUMP JUMPDEST DUP5 ADD SWAP2 POP POP SWAP3 SWAP2 POP POP JUMP JUMPDEST PUSH2 0x157A DUP2 PUSH2 0x132B JUMP JUMPDEST DUP3 MSTORE POP POP JUMP JUMPDEST PUSH1 0x0 PUSH1 0xA0 DUP4 ADD PUSH1 0x0 DUP4 ADD MLOAD DUP5 DUP3 SUB PUSH1 0x0 DUP7 ADD MSTORE PUSH2 0x159D DUP3 DUP3 PUSH2 0x1538 JUMP JUMPDEST SWAP2 POP POP PUSH1 0x20 DUP4 ADD MLOAD PUSH2 0x15B2 PUSH1 0x20 DUP7 ADD DUP3 PUSH2 0x1571 JUMP JUMPDEST POP PUSH1 0x40 DUP4 ADD MLOAD PUSH2 0x15C5 PUSH1 0x40 DUP7 ADD DUP3 PUSH2 0x1571 JUMP JUMPDEST POP PUSH1 0x60 DUP4 ADD MLOAD PUSH2 0x15D8 PUSH1 0x60 DUP7 ADD DUP3 PUSH2 0x1571 JUMP JUMPDEST POP PUSH1 0x80 DUP4 ADD MLOAD PUSH2 0x15EB PUSH1 0x80 DUP7 ADD DUP3 PUSH2 0x1571 JUMP JUMPDEST POP DUP1 SWAP2 POP POP SWAP3 SWAP2 POP POP JUMP JUMPDEST PUSH1 0x0 PUSH1 0x20 DUP3 ADD SWAP1 POP DUP2 DUP2 SUB PUSH1 0x0 DUP4 ADD MSTORE PUSH2 0x1610 DUP2 DUP5 PUSH2 0x1580 JUMP JUMPDEST SWAP1 POP SWAP3 SWAP2 POP POP JUMP JUMPDEST PUSH1 0x0 DUP2 MLOAD SWAP1 POP SWAP2 SWAP1 POP JUMP JUMPDEST PUSH1 0x0 DUP3 DUP3 MSTORE PUSH1 0x20 DUP3 ADD SWAP1 POP SWAP3 SWAP2 POP POP JUMP JUMPDEST PUSH1 0x0 DUP2 SWAP1 POP PUSH1 0x20 DUP3 ADD SWAP1 POP SWAP2 SWAP1 POP JUMP JUMPDEST PUSH1 0x0 PUSH2 0x1650 DUP4 DUP4 PUSH2 0x1538 JUMP JUMPDEST SWAP1 POP SWAP3 SWAP2 POP POP JUMP JUMPDEST PUSH1 0x0 PUSH1 0x20 DUP3 ADD SWAP1 POP SWAP2 SWAP1 POP JUMP JUMPDEST PUSH1 0x0 PUSH2 0x1670 DUP3 PUSH2 0x1618 JUMP JUMPDEST PUSH2 0x167A DUP2 DUP6 PUSH2 0x1623 JUMP JUMPDEST SWAP4 POP DUP4 PUSH1 0x20 DUP3 MUL DUP6 ADD PUSH2 0x168C DUP6 PUSH2 0x1634 JUMP JUMPDEST DUP1 PUSH1 0x0 JUMPDEST DUP6 DUP2 LT ISZERO PUSH2 0x16C8 JUMPI DUP5 DUP5 SUB DUP10 MSTORE DUP2 MLOAD PUSH2 0x16A9 DUP6 DUP3 PUSH2 0x1644 JUMP JUMPDEST SWAP5 POP PUSH2 0x16B4 DUP4 PUSH2 0x1658 JUMP JUMPDEST SWAP3 POP PUSH1 0x20 DUP11 ADD SWAP10 POP POP PUSH1 0x1 DUP2 ADD SWAP1 POP PUSH2 0x1690 JUMP JUMPDEST POP DUP3 SWAP8 POP DUP8 SWAP6 POP POP POP POP POP POP SWAP3 SWAP2 POP POP JUMP JUMPDEST PUSH1 0x0 PUSH1 0x20 DUP3 ADD SWAP1 POP DUP2 DUP2 SUB PUSH1 0x0 DUP4 ADD MSTORE PUSH2 0x16F4 DUP2 DUP5 PUSH2 0x1665 JUMP JUMPDEST SWAP1 POP SWAP3 SWAP2 POP POP JUMP JUMPDEST PUSH1 0x0 PUSH1 0x20 DUP3 DUP5 SUB SLT ISZERO PUSH2 0x1712 JUMPI PUSH2 0x1711 PUSH2 0x115C JUMP JUMPDEST JUMPDEST PUSH1 0x0 PUSH2 0x1720 DUP5 DUP3 DUP6 ADD PUSH2 0x1457 JUMP JUMPDEST SWAP2 POP POP SWAP3 SWAP2 POP POP JUMP JUMPDEST PUSH1 0x0 DUP3 DUP3 MSTORE PUSH1 0x20 DUP3 ADD SWAP1 POP SWAP3 SWAP2 POP POP JUMP JUMPDEST PUSH1 0x0 PUSH2 0x1745 DUP3 PUSH2 0x14F2 JUMP JUMPDEST PUSH2 0x174F DUP2 DUP6 PUSH2 0x1729 JUMP JUMPDEST SWAP4 POP PUSH2 0x175F DUP2 DUP6 PUSH1 0x20 DUP7 ADD PUSH2 0x150E JUMP JUMPDEST PUSH2 0x1768 DUP2 PUSH2 0x1170 JUMP JUMPDEST DUP5 ADD SWAP2 POP POP SWAP3 SWAP2 POP POP JUMP JUMPDEST PUSH1 0x0 PUSH1 0x20 DUP3 ADD SWAP1 POP DUP2 DUP2 SUB PUSH1 0x0 DUP4 ADD MSTORE PUSH2 0x178D DUP2 DUP5 PUSH2 0x173A JUMP JUMPDEST SWAP1 POP SWAP3 SWAP2 POP POP JUMP JUMPDEST PUSH32 0x4E487B7100000000000000000000000000000000000000000000000000000000 PUSH1 0x0 MSTORE PUSH1 0x22 PUSH1 0x4 MSTORE PUSH1 0x24 PUSH1 0x0 REVERT JUMPDEST PUSH1 0x0 PUSH1 0x2 DUP3 DIV SWAP1 POP PUSH1 0x1 DUP3 AND DUP1 PUSH2 0x17DC JUMPI PUSH1 0x7F DUP3 AND SWAP2 POP JUMPDEST PUSH1 0x20 DUP3 LT DUP2 SUB PUSH2 0x17EF JUMPI PUSH2 0x17EE PUSH2 0x1795 JUMP JUMPDEST JUMPDEST POP SWAP2 SWAP1 POP JUMP JUMPDEST PUSH1 0x0 DUP2 SWAP1 POP DUP2 PUSH1 0x0 MSTORE PUSH1 0x20 PUSH1 0x0 KECCAK256 SWAP1 POP SWAP2 SWAP1 POP JUMP JUMPDEST PUSH1 0x0 PUSH1 0x20 PUSH1 0x1F DUP4 ADD DIV SWAP1 POP SWAP2 SWAP1 POP JUMP JUMPDEST PUSH1 0x0 DUP3 DUP3 SHL SWAP1 POP SWAP3 SWAP2 POP POP JUMP JUMPDEST PUSH1 0x0 PUSH1 0x8 DUP4 MUL PUSH2 0x1857 PUSH32 0xFFFFFFFFFFFFFFFFFFFFFFFFFFFFFFFFFFFFFFFFFFFFFFFFFFFFFFFFFFFFFFFF DUP3 PUSH2 0x181A JUMP JUMPDEST PUSH2 0x1861 DUP7 DUP4 PUSH2 0x181A JUMP JUMPDEST SWAP6 POP DUP1 NOT DUP5 AND SWAP4 POP DUP1 DUP7 AND DUP5 OR SWAP3 POP POP POP SWAP4 SWAP3 POP POP POP JUMP JUMPDEST PUSH1 0x0 DUP2 SWAP1 POP SWAP2 SWAP1 POP JUMP JUMPDEST PUSH1 0x0 PUSH2 0x189E PUSH2 0x1899 PUSH2 0x1894 DUP5 PUSH2 0x132B JUMP JUMPDEST PUSH2 0x1879 JUMP JUMPDEST PUSH2 0x132B JUMP JUMPDEST SWAP1 POP SWAP2 SWAP1 POP JUMP JUMPDEST PUSH1 0x0 DUP2 SWAP1 POP SWAP2 SWAP1 POP JUMP JUMPDEST PUSH2 0x18B8 DUP4 PUSH2 0x1883 JUMP JUMPDEST PUSH2 0x18CC PUSH2 0x18C4 DUP3 PUSH2 0x18A5 JUMP JUMPDEST DUP5 DUP5 SLOAD PUSH2 0x1827 JUMP JUMPDEST DUP3 SSTORE POP POP POP POP JUMP JUMPDEST PUSH1 0x0 SWAP1 JUMP JUMPDEST PUSH2 0x18E1 PUSH2 0x18D4 JUMP JUMPDEST PUSH2 0x18EC DUP2 DUP5 DUP5 PUSH2 0x18AF JUMP JUMPDEST POP POP POP JUMP JUMPDEST JUMPDEST DUP2 DUP2 LT ISZERO PUSH2 0x1910 JUMPI PUSH2 0x1905 PUSH1 0x0 DUP3 PUSH2 0x18D9 JUMP JUMPDEST PUSH1 0x1 DUP2 ADD SWAP1 POP PUSH2 0x18F2 JUMP JUMPDEST POP POP JUMP JUMPDEST PUSH1 0x1F DUP3 GT ISZERO PUSH2 0x1955 JUMPI PUSH2 0x1926 DUP2 PUSH2 0x17F5 JUMP JUMPDEST PUSH2 0x192F DUP5 PUSH2 0x180A JUMP JUMPDEST DUP2 ADD PUSH1 0x20 DUP6 LT ISZERO PUSH2 0x193E JUMPI DUP2 SWAP1 POP JUMPDEST PUSH2 0x1952 PUSH2 0x194A DUP6 PUSH2 0x180A JUMP JUMPDEST DUP4 ADD DUP3 PUSH2 0x18F1 JUMP JUMPDEST POP POP JUMPDEST POP POP POP JUMP JUMPDEST PUSH1 0x0 DUP3 DUP3 SHR SWAP1 POP SWAP3 SWAP2 POP POP JUMP JUMPDEST PUSH1 0x0 PUSH2 0x1978 PUSH1 0x0 NOT DUP5 PUSH1 0x8 MUL PUSH2 0x195A JUMP JUMPDEST NOT DUP1 DUP4 AND SWAP2 POP POP SWAP3 SWAP2 POP POP JUMP JUMPDEST PUSH1 0x0 PUSH2 0x1991 DUP4 DUP4 PUSH2 0x1967 JUMP JUMPDEST SWAP2 POP DUP3 PUSH1 0x2 MUL DUP3 OR SWAP1 POP SWAP3 SWAP2 POP POP JUMP JUMPDEST PUSH2 0x19AA DUP3 PUSH2 0x14F2 JUMP JUMPDEST PUSH8 0xFFFFFFFFFFFFFFFF DUP2 GT ISZERO PUSH2 0x19C3 JUMPI PUSH2 0x19C2 PUSH2 0x1181 JUMP JUMPDEST JUMPDEST PUSH2 0x19CD DUP3 SLOAD PUSH2 0x17C4 JUMP JUMPDEST PUSH2 0x19D8 DUP3 DUP3 DUP6 PUSH2 0x1914 JUMP JUMPDEST PUSH1 0x0 PUSH1 0x20 SWAP1 POP PUSH1 0x1F DUP4 GT PUSH1 0x1 DUP2 EQ PUSH2 0x1A0B JUMPI PUSH1 0x0 DUP5 ISZERO PUSH2 0x19F9 JUMPI DUP3 DUP8 ADD MLOAD SWAP1 POP JUMPDEST PUSH2 0x1A03 DUP6 DUP3 PUSH2 0x1985 JUMP JUMPDEST DUP7 SSTORE POP PUSH2 0x1A6B JUMP JUMPDEST PUSH1 0x1F NOT DUP5 AND PUSH2 0x1A19 DUP7 PUSH2 0x17F5 JUMP JUMPDEST PUSH1 0x0 JUMPDEST DUP3 DUP2 LT ISZERO PUSH2 0x1A41 JUMPI DUP5 DUP10 ADD MLOAD DUP3 SSTORE PUSH1 0x1 DUP3 ADD SWAP2 POP PUSH1 0x20 DUP6 ADD SWAP5 POP PUSH1 0x20 DUP2 ADD SWAP1 POP PUSH2 0x1A1C JUMP JUMPDEST DUP7 DUP4 LT ISZERO PUSH2 0x1A5E JUMPI DUP5 DUP10 ADD MLOAD PUSH2 0x1A5A PUSH1 0x1F DUP10 AND DUP3 PUSH2 0x1967 JUMP JUMPDEST DUP4 SSTORE POP JUMPDEST PUSH1 0x1 PUSH1 0x2 DUP9 MUL ADD DUP9 SSTORE POP POP POP JUMPDEST POP POP POP POP POP POP JUMP JUMPDEST PUSH32 0x4E487B7100000000000000000000000000000000000000000000000000000000 PUSH1 0x0 MSTORE PUSH1 0x11 PUSH1 0x4 MSTORE PUSH1 0x24 PUSH1 0x0 REVERT JUMPDEST PUSH1 0x0 PUSH2 0x1AAD DUP3 PUSH2 0x132B JUMP JUMPDEST SWAP2 POP PUSH2 0x1AB8 DUP4 PUSH2 0x132B JUMP JUMPDEST SWAP3 POP DUP3 DUP3 SUB SWAP1 POP DUP2 DUP2 GT ISZERO PUSH2 0x1AD0 JUMPI PUSH2 0x1ACF PUSH2 0x1A73 JUMP JUMPDEST JUMPDEST SWAP3 SWAP2 POP POP JUMP JUMPDEST PUSH32 0x4E487B7100000000000000000000000000000000000000000000000000000000 PUSH1 0x0 MSTORE PUSH1 0x32 PUSH1 0x4 MSTORE PUSH1 0x24 PUSH1 0x0 REVERT JUMPDEST PUSH1 0x0 PUSH2 0x1B10 DUP3 PUSH2 0x132B JUMP JUMPDEST SWAP2 POP PUSH32 0xFFFFFFFFFFFFFFFFFFFFFFFFFFFFFFFFFFFFFFFFFFFFFFFFFFFFFFFFFFFFFFFF DUP3 SUB PUSH2 0x1B42 JUMPI PUSH2 0x1B41 PUSH2 0x1A73 JUMP JUMPDEST JUMPDEST PUSH1 0x1 DUP3 ADD SWAP1 POP SWAP2 SWAP1 POP JUMP JUMPDEST PUSH1 0x0 DUP2 SWAP1 POP SWAP3 SWAP2 POP POP JUMP JUMPDEST PUSH1 0x0 PUSH2 0x1B63 DUP3 PUSH2 0x14F2 JUMP JUMPDEST PUSH2 0x1B6D DUP2 DUP6 PUSH2 0x1B4D JUMP JUMPDEST SWAP4 POP PUSH2 0x1B7D DUP2 DUP6 PUSH1 0x20 DUP7 ADD PUSH2 0x150E JUMP JUMPDEST DUP1 DUP5 ADD SWAP2 POP POP SWAP3 SWAP2 POP POP JUMP JUMPDEST PUSH1 0x0 PUSH2 0x1B95 DUP3 DUP5 PUSH2 0x1B58 JUMP JUMPDEST SWAP2 POP DUP2 SWAP1 POP SWAP3 SWAP2 POP POP JUMP JUMPDEST PUSH32 0x4E487B7100000000000000000000000000000000000000000000000000000000 PUSH1 0x0 MSTORE PUSH1 0x31 PUSH1 0x4 MSTORE PUSH1 0x24 PUSH1 0x0 REVERT INVALID LOG2 PUSH5 0x6970667358 0x22 SLT KECCAK256 0x4C SWAP3 0xA8 SWAP7 PUSH0 AND SAR 0xD2 0xE3 GASPRICE 0xA8 0xEC PUSH0 PUSH0 DUP10 BLOBBASEFEE DUP7 DUP13 0xA7 0x4C BALANCE PUSH2 0xB2A5 0xCB 0x4F TIMESTAMP PUSH7 0x11A82A6B64736F PUSH13 0x63430008180033000000000000 "
        },
        "methodIdentifiers": {
          "addEvent(string,uint256,uint256,uint256)": "28c08ed0",
          "buyTicket(string)": "fa30b251",
          "getAllEvents()": "c27a500d",
          "getEventInformation(string)": "94f3af43",
          "owner()": "8da5cb5b",
          "renounceOwnership()": "715018a6",
          "resellTicket(string,address)": "68a23648",
          "ticketOwned(string)": "0d9cba5c",
          "ticketsOwned()": "d4fd27be",
          "transferOwnership(address)": "f2fde38b"
        }
      }
    }
  }
}